:020000040800F2
:1000000000000220750E00085D0D0008650D000857
:100010006D0D0008750D00087D0D00080000000042
:10002000000000000000000000000000850D000836
:10003000930D000800000000A10D0008AF0D00089E
:10004000C50E0008C50E0008C50E0008C50E000844
:10005000C50E0008C50E0008C50E0008C50E000834
:10006000C50E0008C50E0008C50E0008C50E000824
:10007000C50E0008C50E0008C50E0008C50E000814
:10008000C50E0008C50E0008C50E0008C50E000804
:10009000C50E0008C50E0008C50E0008C50E0008F4
:1000A000C50E0008C50E0008C50E0008C50E0008E4
:1000B000C50E0008C50E0008C50E0008C50E0008D4
:1000C000C50E0008C50E0008C50E0008C50E0008C4
:1000D000C50E0008C50E0008C50E0008C50E0008B4
:1000E000C50E0008BD0D0008C50E0008C50E0008AD
:1000F000C50E0008C50E0008C50E0008C50E000894
:10010000C50E0008C50E0008C50E0008C50E000883
:10011000C50E0008C50E0008C50E0008C50E000873
:10012000C50E0008C50E0008C50E0008C50E000863
:10013000C50E0008C50E0008C50E0008C50E000853
:10014000C50E0008C50E0008C50E0008D10D000838
:10015000C50E0008C50E0008C50E0008C50E000833
:10016000C50E0008C50E0008C50E0008C50E000823
:10017000C50E0008C50E0008C50E000800000000EE
:08018000C50E0008C50E0008C1
:1001880010B5054C237833B9044B13B10448AFF3C9
:1001980000800123237010BD7C00002000000000B7
:1001A8004C96000808B5034B1BB103490348AFF34D
:1001B800008008BD00000000800000204C96000868
:1001C80053B94AB9002908BF00281CBF4FF0FF31B6
:1001D8004FF0FF3000F06AB9ADF1080C6DE904CEBC
:1001E80000F006F8DDF804E0DDE9022304B070470A
:1001F8002DE9F047089D0C46002B4ED194468C45BE
:100208008646B2FA82F262D94AB1C2F1200391401D
:1002180020FA03F30CFA02FC194300FA02FE4FEA33
:100228001C471FFA8CF6B1FBF7F44FEA1E4307FB95
:10023800141143EA014304FB06F199420AD91CEB65
:10024800030304F1FF3080F01281994240F20F81DC
:10025800023C6344591A1FFA8EF3B1FBF7F007FB0F
:10026800101143EA014300FB06F69E420AD91CEB33
:10027800030300F1FF3180F0FC809E4240F2F980D8
:10028800634402389B1B40EA044000211DB1D3405F
:100298000022C5E90032BDE8F0878B4205D90DB1CF
:1002A800C5E9000100210846F5E7B3FA83F1002902
:1002B80046D1A34202D39042C0F0F080861A64EB84
:1002C80003030120002DE6D0C5E90063E3E7002A17
:1002D80040F09080A1EB0C044FEA1C481FFA8CF701
:1002E8000121B4FBF8F64FEA1E4308FB164443EA23
:1002F800044307FB06F0984208D91CEB030306F1F8
:10030800FF3402D2984200F2CD8026461C1A1FFA0A
:100318008EF3B4FBF8F008FB104443EA044300FBF7
:1003280007F79F4208D91CEB030300F1FF3402D200
:100338009F4200F2B0802046DB1B40EA0640A5E75A
:10034800C1F120068B4022FA06F71F4320FA06FC6B
:1003580004FA01F343EA0C03F44000FA01F8380CFC
:100368004FEA1349B4FBF0FE1FFA87FC00FB1E445A
:1003780049EA04440EFB0CF9A14502FA01F20AD934
:100388003C190EF1FF3A80F08480A14540F281804B
:10039800AEF1020E3C44A4EB09041FFA83F9B4FB46
:1003A800F0F300FB134449EA044403FB0CFCA445A6
:1003B80007D93C1903F1FF3067D2A44565D9023B40
:1003C8003C4443EA0E40A0FB0293A4EB0C049C427D
:1003D800CE469C4651D34ED055B1B8EB0E0364EBD4
:1003E8000C0404FA06F6CB401E43CC40C5E9006471
:1003F800002150E7C2F1200320FA03F10CFA02FCB5
:1004080024FA03F394400C434FEA1C4800FA02FE16
:100418001FFA8CF7B3FBF8F008FB1031230C43EA02
:10042800014300FB07F1994208D91CEB030300F1D3
:10043800FF362CD299422AD9023863445B1AA4B2F7
:10044800B3FBF8F108FB113344EA034401FB07F35B
:10045800A34208D91CEB040401F1FF3613D2A342CE
:1004680011D902396444E41A41EA004139E70446E3
:10047800F0E6084606E7C845AED2B9EB020E63EBD4
:10048800070C0138A8E73146EDE7034699E73046FF
:10049800D4E7D6467FE7634402384DE7064623464D
:1004A80008460FE7023E634430E700BF704700BFCD
:1004B80080B500AF00F004FD00F042F800F0CCF980
:1004C80000F0AAF800F0D6F800F090F908F064FC03
:1004D80000F000F9164B11221A70154B11225A70B0
:1004E800134B00229A7000221149124804F0C1FDF2
:1004F800114B01229A70104B02225A700E4B0722A0
:100508001A7000220C490B4804F02FFF08F06AFC0F
:1005180000220749074804F046FE4FF40041074807
:1005280001F02BF8C82000F03DFD00BFEEE700BF4A
:10053800540100203401002068010020000C024012
:1005480080B594B000AF07F120033022002118468F
:1005580008F0EAFF07F10C0300221A605A609A605B
:10056800DA601A610023BB60294B1B6C284A43F0F0
:1005780080531364264B1B6C03F08053BB60BB682D
:1005880000237B60234B1B68224A43F4804313609B
:10059800204B1B6803F480437B607B6809233B6224
:1005A8004FF480337B6201237B630223BB634FF4E8
:1005B8008003FB6308233B644FF4A8737B64022326
:1005C800BB640723FB6407F12003184603F008FF08
:1005D8000346002B01D000F04DFA0F23FB600223E5
:1005E8003B6100237B614FF4A053BB614FF4805300
:1005F800FB6107F10C030521184604F069F903466D
:10060800002B01D000F036FA00BF5037BD4680BD40
:10061800003802400070004080B500AF124B134A0A
:100628001A60114B124A5A600F4B00229A600E4B07
:100638000022DA600C4B4FF480421A610A4B002208
:100648005A61094B00229A61074B0022DA61064B76
:1006580000221A62044803F0DFF80346002B01D099
:1006680000F008FA00BF80BD980000200054004048
:10067800A086010080B500AF134B144A1A60124BD4
:100688004FF400725A60104B00229A600E4B002201
:10069800DA600D4B4FF400721A610B4B0C4A5A6129
:1006A800094B00229A61084B0022DA61064B0022AE
:1006B8001A62054803F0F4F90346002B01D000F054
:1006C800D9F900BF80BD00BFEC000020003C00400D
:1006D8000077010080B590B000AF07F12C0300222D
:1006E8001A605A609A60DA601A610023BB623B465E
:1006F80028220021184608F017FF3A4B3A4A1A6098
:10070800384B00225A60374B7F229A60354BFF22C4
:10071800DA60344B00221A61324B00225A61314BA5
:1007280000229A612F4804F021FC0346002B01D0D7
:1007380000F0A0F9112387F82C30052387F82D3015
:10074800012387F82E300023BB630023FB6307F1E6
:100758002C0300221946234804F08BFC0346002B87
:1007680001D000F087F9072387F82830022387F89B
:100778002930022387F82A30002387F82B3007F125
:10078800280300221946174804F06BFD0346002B86
:1007980001D000F06FF900233B7000237B700A231F
:1007A800BB7000237B600023FB6000233B610023B8
:1007B8007B610023BB610023FB61012387F82030A4
:1007C8004FF480737B623B4600221946054804F0CB
:1007D8001BFE0346002B01D000F04CF900BF403748
:1007E800BD4680BD340100200028004080B500AF20
:1007F800174B184A1A60164B4FF482725A60144B02
:1008080000229A60124B0022DA60114B00221A6112
:100818000F4B00225A610E4B4FF400729A610C4B39
:100828000022DA610A4B00221A62094B00225A623E
:10083800074B00229A62064B0A22DA62044805F046
:1008480035F80346002B01D000F014F900BF80BD35
:100858006C0100200030014080B58CB000AF07F17A
:100868001C0300221A605A609A60DA601A61002339
:10087800BB61724B1B6B714A43F0100313636F4BE0
:100888001B6B03F01003BB61BB6900237B616B4BDF
:100898001B6B6A4A43F004031363684B1B6B03F03A
:1008A80004037B617B6900233B61644B1B6B634AD8
:1008B80043F080031363614B1B6B03F080033B61C0
:1008C8003B690023FB605D4B1B6B5C4A43F00103F3
:1008D80013635A4B1B6B03F00103FB60FB68002397
:1008E800BB60564B1B6B554A43F002031363534BD3
:1008F8001B6B03F00203BB60BB6800237B604F4B9C
:100908001B6B4E4A43F0080313634C4B1B6B03F0FD
:1009180008037B607B6800220821494800F014FE28
:1009280001220121474800F00FFE00224FF6100176
:10093800454800F009FE0823FB6101233B620023C0
:100948007B620023BB6207F11C0319463C4800F098
:100958005FFC0123FB6101233B6200237B620023D0
:10096800BB6207F11C031946364800F051FC082306
:10097800FB6102233B6200237B620023BB620523E9
:10098800FB6207F11C0319462E4800F041FC0123C5
:10099800FB614FF490133B6200237B6207F11C0359
:1009A80019462A4800F034FC0423FB6100233B620B
:1009B80000237B6207F11C031946254800F028FC38
:1009C8004FF48063FB6102233B6200237B620023B8
:1009D800BB620523FB6207F11C0319461C4800F0A3
:1009E80017FC4FF61003FB6101233B6200237B6277
:1009F8000023BB6207F11C031946134800F008FCEA
:100A08002023FB6100233B6200237B6207F11C0368
:100A180019460D4800F0FCFB0223FB614FF49013CC
:100A28003B6200237B6207F11C031946044800F06F
:100A3800EFFB00BF3037BD4680BD00BF0038024025
:100A48000010024000080240000C02400000024072
:100A58000004024080B582B000AF78604FF40061B6
:100A6800034800F08AFD00BF0837BD4680BD00BFBF
:100A7800000C024080B400AF72B600BF00BFFDE7B3
:100A880080B582B000AF00237B60104B5B6C0F4ACF
:100A980043F4804353640D4B5B6C03F480437B60E9
:100AA8007B6800233B60094B1B6C084A43F080536A
:100AB8001364064B1B6C03F080533B603B680720B4
:100AC80000F064FB00BF0837BD4680BD0038024017
:100AD80080B58AB000AF786007F1140300221A606D
:100AE8005A609A60DA601A617B681B68194A9342F7
:100AF8002CD100233B61184B1B6B174A43F00203B0
:100B08001363154B1B6B03F002033B613B694FF406
:100B180010737B611223BB610123FB6100233B62DD
:100B280004237B6207F1140319460C4800F070FB9C
:100B38000023FB60084B1B6C074A43F40013136443
:100B4800054B1B6C03F40013FB60FB6800BF2837E0
:100B5800BD4680BD005400400038024000040240F9
:100B680080B58EB000AF786007F1240300221A60C8
:100B78005A609A60DA601A6107F1140300221A6059
:100B88005A609A60DA607B681B68314A93425AD18E
:100B980001237B61C023BB610223FB6107F11403BE
:100BA800184604F0A1F80346002B01D0FFF762FFB6
:100BB80000233B61274B1B6C264A43F40043136414
:100BC800244B1B6C03F400433B613B690023FB602F
:100BD800204B1B6B1F4A43F0010313631D4B1B6B18
:100BE80003F00103FB60FB680023BB60194B1B6B20
:100BF800184A43F004031363164B1B6B03F00403FA
:100C0800BB60BB6810237B620223BB620023FB62CC
:100C180000233B6306237B6307F1240319460E4830
:100C280000F0F6FA4FF4A4537B620223BB62002360
:100C3800FB6200233B6306237B6307F12403194609
:100C4800064800F0E5FA00BF3837BD4680BD00BF52
:100C5800003C00400038024000000240000802400A
:100C680080B586B000AF786007F1080300221A60EB
:100C78005A609A60DA607B681B68104A934219D1FF
:100C88000223BB604FF400737B6107F10803184629
:100C980004F02AF80346002B01D0FFF7EBFE084BBF
:100CA80001221A6000220021292000F07AFA292066
:100CB80000F093FA00BF1837BD4680BD00280040F9
:100CC8003C0E474280B58AB000AF786007F1140344
:100CD80000221A605A609A60DA601A617B681B68A1
:100CE800194A93422BD100233B61184B5B6C174A7E
:100CF80043F480535364154B5B6C03F480533B619E
:100D08003B690023FB60114B1B6B104A43F0010346
:100D180013630E4B1B6B03F00103FB60FB68E023BE
:100D28007B610223BB610023FB6100233B62052337
:100D38007B6207F114031946054800F069FA00BF01
:100D48002837BD4680BD00BF003001400038024052
:100D58000000024080B400AF00BFFDE780B400AFE0
:100D680000BFFDE780B400AF00BFFDE780B400AF6F
:100D780000BFFDE780B400AF00BFFDE780B400AF5F
:100D880000BFBD465DF8047B704780B400AF00BF6C
:100D9800BD465DF8047B704780B400AF00BFBD4618
:100DA8005DF8047B704780B500AF00F0DBF800BF4A
:100DB80080BD000080B500AF024804F069FC00BFA8
:100DC80080BD00BF3401002080B500AF024800F0AC
:100DD800CFFE00BF80BD00BFA805002080B586B04B
:100DE80000AF7860144A154BD31A7B617B693B616D
:100DF800134B1B68002B02D1114B124A1A60104B7F
:100E08001A687B6813443A699A4207D208F0A4FB2F
:100E180003460C221A604FF0FF3309E0084B1B68A9
:100E2800FB60074B1A687B681344054A1360FB682C
:100E380018461837BD4680BD000002200004000097
:100E4800C4010020D00A002080B400AF064BD3F8BC
:100E58008830054A43F47003C2F8883000BFBD46A5
:100E68005DF8047B704700BF00ED00E0DFF834D088
:100E7800FFF7EAFF0C480D490D4A002302E0D45859
:100E8800C4500433C4188C42F9D30A4A0A4C0023CC
:100E980001E013600432A242FBD308F063FBFFF7C2
:100EA80007FB704700000220000000207C000020A3
:100EB800909600087C000020D00A0020FEE7000081
:100EC80080B500AF0E4B1B680D4A43F400731360E6
:100ED8000B4B1B680A4A43F480631360084B1B687A
:100EE800074A43F480731360032000F04FF9002091
:100EF80000F008F8FFF7C4FD0023184680BD00BFC6
:100F0800003C024080B582B000AF7860124B1A688E
:100F1800124B1B7819464FF47A73B3FBF1F3B2FB0B
:100F2800F3F3184600F067F90346002B01D00123BC
:100F38000EE07B680F2B0AD8002279684FF0FF304B
:100F480000F02FF9064A7B681360002300E00123B4
:100F580018460837BD4680BD000000200800002064
:100F68000400002080B400AF064B1B781A46064BDD
:100F78001B681344044A136000BFBD465DF8047B38
:100F8800704700BF08000020C801002080B400AFEF
:100F9800034B1B681846BD465DF8047B704700BFCD
:100FA800C801002080B584B000AF7860FFF7EEFF7D
:100FB800B8607B68FB60FB68B3F1FF3F05D00A4B64
:100FC8001B781A46FB681344FB6000BFFFF7DEFF7F
:100FD8000246BB68D31AFA689A42F7D800BF00BF26
:100FE8001037BD4680BD00BF0800002080B485B022
:100FF80000AF78607B6803F00703FB600C4BDB688D
:10100800BB60BA684FF6FF031340BB60FB681A0267
:10101800BB68134343F0BF6343F40033BB60044A27
:10102800BB68D36000BF1437BD465DF8047B7047CA
:1010380000ED00E080B400AF044BDB681B0A03F04E
:1010480007031846BD465DF8047B704700ED00E0D5
:1010580080B483B000AF0346FB7197F90730002BCB
:101068000BDBFB7903F01F02074997F907305B098F
:10107800012000FA02F241F8232000BF0C37BD46D8
:101088005DF8047B704700BF00E100E080B483B0E6
:1010980000AF03463960FB7197F90730002B0ADB74
:1010A8003B68DAB20C4997F907301201D2B20B4407
:1010B80083F800230AE03B68DAB20849FB7903F0B9
:1010C8000F03043B1201D2B20B441A7600BF0C374F
:1010D800BD465DF8047B704700E100E000ED00E0EC
:1010E80080B489B000AFF860B9607A60FB6803F03B
:1010F8000703FB61FB69C3F10703042B28BF042323
:10110800BB61FB690433062B02D9FB69033B00E092
:1011180000237B614FF0FF32BB6902FA03F3DA4325
:10112800BB681A407B699A404FF0FF317B6901FA2E
:1011380003F3D9437B680B40134318462437BD4655
:101148005DF8047B7047000080B582B000AF78601E
:101158007B68013BB3F1807F01D301230FE00A4A8A
:101168007B68013B53600F214FF0FF30FFF78EFF84
:10117800054B00229A60044B07221A600023184688
:101188000837BD4680BD00BF10E000E080B582B0E2
:1011980000AF78607868FFF729FF00BF0837BD46C1
:1011A80080BD80B586B000AF0346B9607A60FB7336
:1011B80000237B61FFF73EFF78617A68B968786938
:1011C800FFF78EFF024697F90F3011461846FFF7D2
:1011D8005DFF00BF1837BD4680BD80B582B000AF47
:1011E8000346FB7197F907301846FFF731FF00BF38
:1011F8000837BD4680BD80B582B000AF786078689A
:10120800FFF7A2FF034618460837BD4680BD000019
:1012180080B489B000AF7860396000237B61002317
:101228003B610023BB610023FB616BE10122FB6989
:1012380002FA03F37B613B681B687A6913403B61E0
:101248003A697B699A4240F05A813B685B6803F0CF
:101258000303012B05D03B685B6803F00303022BF3
:1012680030D17B689B68BB61FB695B00032202FA93
:1012780003F3DB43BA691340BB613B68DA68FB6977
:101288005B0002FA03F3BA691343BB617B68BA696E
:101298009A607B685B68BB610122FB6902FA03F311
:1012A800DB43BA691340BB613B685B681B0903F009
:1012B8000102FB6902FA03F3BA691343BB617B6855
:1012C800BA695A603B685B6803F00303032B17D0C5
:1012D8007B68DB68BB61FB695B00032202FA03F3EE
:1012E800DB43BA691340BB613B689A68FB695B00E2
:1012F80002FA03F3BA691343BB617B68BA69DA601F
:101308003B685B6803F00303022B23D1FB69DA080F
:101318007B68083253F82230BB61FB6903F007038E
:101328009B000F2202FA03F3DB43BA691340BB6147
:101338003B681A69FB6903F007039B0002FA03F391
:10134800BA691343BB61FB69DA087B680832B9697B
:1013580043F822107B681B68BB61FB695B000322B2
:1013680002FA03F3DB43BA691340BB613B685B686D
:1013780003F00302FB695B0002FA03F3BA69134343
:10138800BB617B68BA691A603B685B6803F44033E9
:10139800002B00F0B4800023FB60604B5B6C5F4A5D
:1013A80043F4804353645D4B5B6C03F48043FB6000
:1013B800FB685B4AFB699B08023352F82330BB6128
:1013C800FB6903F003039B000F2202FA03F3DB43DC
:1013D800BA691340BB617B68524A93422BD07B6841
:1013E800514A934225D07B68504A93421FD07B686C
:1013F8004F4A934219D07B684E4A934213D07B6878
:101408004D4A93420DD07B684C4A934207D07B6883
:101418004B4A934201D107230EE008230CE0062330
:101428000AE0052308E0042306E0032304E002237E
:1014380002E0012300E00023FA6902F003029200AF
:101448009340BA691343BB613549FB699B08023372
:10145800BA6941F823203B4B9B68BB613B69DB437E
:10146800BA691340BB613B685B6803F48013002BC7
:1014780003D0BA693B691343BB61324ABB699360C5
:10148800304BDB68BB613B69DB43BA691340BB6126
:101498003B685B6803F40013002B03D0BA693B690F
:1014A8001343BB61274ABB69D360264B5B68BB61AA
:1014B8003B69DB43BA691340BB613B685B6803F473
:1014C8000033002B03D0BA693B691343BB611D4A43
:1014D800BB6953601B4B1B68BB613B69DB43BA6943
:1014E8001340BB613B685B6803F48033002B03D077
:1014F800BA693B691343BB61124ABB691360FB6954
:101508000133FB61FB690F2B7FF690AE00BF00BF74
:101518002437BD465DF8047B704700BF00380240A1
:101528000038014000000240000402400008024068
:10153800000C024000100240001402400018024053
:10154800001C0240003C014080B483B000AF7860CA
:101558000B467B8013467B707B78002B03D07A8800
:101568007B689A6103E07B881A047B689A6100BFF4
:101578000C37BD465DF8047B704780B485B000AF7A
:1015880078600B467B807B685B69FB607A88FB68C8
:1015980013401A04FB68D9437B880B401A437B68C5
:1015A8009A6100BF1437BD465DF8047B704780B56B
:1015B80086B002AF78607B68002B01D1012359E027
:1015C8007B681B68FB607B6893F8D533DBB2002B24
:1015D80006D17B68002283F8D423786807F03AFCA8
:1015E8007B68032283F8D523FB68B3F1A04F02D1AF
:1015F8007B6800229A717B681B68184604F054FACD
:101608007B6818687B681A7C8DF8002004330ECB41
:1016180004F0D5F90346002B05D07B68022283F835
:10162800D523012326E07B681B680121184604F0B6
:101638004CFA0346002B05D07B68022283F8D52399
:10164800012317E07B6818687B681A7C8DF80020F6
:1016580004330ECB04F0EEFB0346002B05D07B6869
:10166800022283F8D523012304E07B68012283F852
:10167800D523002318461037BD4680BD90B58BB0E2
:1016880004AF7860084611461A460346FB700B46BD
:10169800BB7013467B703B8E7B617B6893F8D433B9
:1016A800012B01D102239DE07B68012283F8D4231A
:1016B800FA78796813461B019B1A9B000B4419336F
:1016C80000221A70FA78796813461B019B1A9B004E
:1016D8000B4414337A781A70FA78796813461B0128
:1016E8009B1A9B000B441533FA781A70FA787968BC
:1016F80013461B019B1A9B000B44263397F82C209A
:101708001A70FA78BB7803F07F03D8B27968134669
:101718001B019B1A9B000B44163302461A70FB7878
:101728001946786800F0C8FB97F90230002B0ADAEE
:10173800FA78796813461B019B1A9B000B441733F0
:1017480001221A7009E0FA78796813461B019B1A7E
:101758009B000B44173300221A707B681B681846DD
:1017680004F0CCFC386197F82C30012B0BD197F89A
:101778002830012B07D13B69002B04D17B69BC2B96
:1017880001D9BC237B61FA78796813461B019B1A3F
:101798009B000B44183397F828201A70FA787B6955
:1017A80098B2796813461B019B1A9B000B44283397
:1017B80002461A807B6818687B699BB27C78BA7885
:1017C800F978029397F82C30019397F82830009312
:1017D800234604F0BBFC0346FB737B68002283F8B6
:1017E800D423FB7B18461C37BD4690BD80B584B01A
:1017F80000AF78600B46FB700023FB737B6893F89F
:10180800D433012B01D102230FE07B68012283F836
:10181800D4237B681B68FA781146184605F04DF802
:101828007B68002283F8D423FB7B18461037BD461B
:1018380080BD000080B582B000AF786008461146D0
:101848001A460346FB700B46BB7013467B70FA784A
:10185800796813461B019B1A9B000B441733BA780F
:101868001A70FA78796813461B019B1A9B000B447F
:1018780026337A781A703B7C002B14D1FA78796871
:1018880013461B019B1A9B000B442A3303221A7030
:10189800FA78796813461B019B1A9B000B4419338D
:1018A8003A7F1A7009E0FA78796813461B019B1A87
:1018B8009B000B442A3302221A707B78032B00F218
:1018C800028101A252F823F0E1180008B91A0008B1
:1018D800A51900082F1A00083B7C012B40F0F58061
:1018E800BB78002B2DD13B8B002B09D1FA78796876
:1018F80013461B019B1A9B000B443D3301221A70AF
:10190800FA78796813461B019B1A9B000B443D33F8
:101918001B78002B0AD1FA78796813461B019B1AA9
:101928009B000B442A3300221A70CEE0FA787968BB
:1019380013461B019B1A9B000B442A3302221A7080
:10194800C3E0FA78796813461B019B1A9B000B4485
:101958001A331B78012B40F0B880FA78796813465F
:101968001B019B1A9B000B443C331B78002B0AD1AC
:10197800FA78796813461B019B1A9B000B442A339B
:1019880000221A70A1E0FA78796813461B019B1AA5
:101998009B000B442A3302221A7096E0BB78002B76
:1019A80020D1FA78796813461B019B1A9B000B44D7
:1019B8003D331B78002B0AD1FA78796813461B014E
:1019C8009B1A9B000B442A3300221A707EE0FA7897
:1019D800796813461B019B1A9B000B442A33022289
:1019E8001A7073E0FA78796813461B019B1A9B00FA
:1019F8000B443C331B78002B0AD1FA7879681346DC
:101A08001B019B1A9B000B442A3300221A705DE0CD
:101A1800FA78796813461B019B1A9B000B442A33FA
:101A280002221A7052E0BB78002B20D1FA7879682C
:101A380013461B019B1A9B000B443D331B78002B5C
:101A48000AD1FA78796813461B019B1A9B000B444C
:101A58002A3300221A7039E0FA78796813461B0194
:101A68009B1A9B000B442A3302221A702EE0FA7844
:101A7800796813461B019B1A9B000B443C331B7867
:101A8800002B0AD1FA78796813461B019B1A9B0030
:101A98000B442A3300221A7018E0FA787968134642
:101AA8001B019B1A9B000B442A3302221A700DE07B
:101AB800FA78796813461B019B1A9B000B442A335A
:101AC80000221A7002E000BF00E000BFFA787968CF
:101AD80013461B019B1A9B000B442C337A691A602E
:101AE800FA78398B786813461B019B1A9B000344CC
:101AF80034331960FA78796813461B019B1A9B00E6
:101B08000B444C3300221A70FA78796813461B018B
:101B18009B1A9B000B44383300221A60FA787968C4
:101B280013461B019B1A9B000B441533FA781A7055
:101B3800FA78796813461B019B1A9B000B444D33B6
:101B480000221A707B681868FA7813461B019B1AE2
:101B58009B0010337A681344191D7B689B791A46D9
:101B680004F020FC034618460837BD4680BD00BF78
:101B780080B586B000AF78607B681B683B613B69C5
:101B8800FB607B681B68184604F015F90346012BB7
:101B980040F0FB807B681B68184604F0D8F80346C1
:101BA800002B00F0F1807B681B68184604F0CFF822
:101BB800034603F40013B3F5001F04D17B681B68C8
:101BC8004FF400125A617B681B68184604F0BFF88E
:101BD800034603F48013B3F5801F04D17B681B68A8
:101BE8004FF480125A617B681B68184604F0AFF8FE
:101BF800034603F08063B3F1806F04D17B681B68F0
:101C08004FF080625A617B681B68184604F09FF8A1
:101C1800034603F00203022B03D17B681B680222F0
:101C28005A617B681B68184604F091F8034603F074
:101C38000053B3F1005F20D17B681B684FF000525E
:101C48005A61FB6803F588631B6803F00103002BE6
:101C580013D11021386903F084FF386903F0B3FF0A
:101C68007B685B7A022B05D17B681B6801211846CB
:101C780004F0A4F9786807F06BF97B681B681846CC
:101C880004F065F8034603F08073B3F1807F02D156
:101C9800786801F04DFD7B681B68184604F057F81A
:101CA800034603F00803082B06D1786807F034F9D7
:101CB8007B681B6808225A617B681B68184604F019
:101CC80046F8034603F00073B3F1007F39D17B680F
:101CD8001B68184604F0E0FDB86000237B6125E02E
:101CE8007B6903F00F03BA6822FA03F303F00103D8
:101CF800002B18D07B695A01FB68134403F5A063D5
:101D08001B6803F40043B3F5004F06D17B69DBB2CF
:101D18001946786800F005F905E07B69DBB21946D9
:101D2800786800F067FF7B6901337B617B685B79CA
:101D38001A467B699342D3D37B681B684FF00072C5
:101D48005A617B681B68184604F001F8034603F0E3
:101D58001003102B01D1012300E00023002B14D025
:101D68007B681B689A697B681B6822F010029A617D
:101D7800786801F0FEFB7B681B689A697B681B68C2
:101D880042F010029A6100E000BF1837BD4680BDDE
:101D980080B582B000AF78607B6893F8D433012BAC
:101DA80001D1022313E07B68012283F8D4237B68E6
:101DB8001B680121184604F068F97B681B681846FF
:101DC80003F061FE7B68002283F8D42300231846C1
:101DD8000837BD4680BD80B582B000AF78607B68AB
:101DE80093F8D433012B01D102230DE07B68012243
:101DF80083F8D4237B681B68184604F0BBFE7B6815
:101E0800002283F8D423002318460837BD4680BD36
:101E180080B582B000AF78607B681B68184604F014
:101E28000AF9034618460837BD4680BD80B483B01A
:101E380000AF78600B46FB70FA78796813461B018F
:101E48009B1A9B000B444C331B7818460C37BD4635
:101E58005DF8047B704780B483B000AF78600B46B0
:101E6800FB70FA78796813461B019B1A9B000B4498
:101E780038331B6818460C37BD465DF8047B70473D
:101E880080B582B000AF78607B681B68184604F0A4
:101E98004CF9034618460837BD4680BD80B582B068
:101EA80000AF78607B681B68184604F027F9034682
:101EB80018460837BD4680BD80B483B000AF78604F
:101EC8000B46FB70FA78796813461B019B1A9B0036
:101ED8000B441A3300221A70FA78796813461B01EA
:101EE8009B1A9B000B441B3300221A70FA787968FE
:101EF80013461B019B1A9B000B44253300221A70C2
:101F0800FA78796813461B019B1A9B000B4424330B
:101F180000221A70002318460C37BD465DF8047B72
:101F2800704780B586B000AF78600B46FB707B6861
:101F38001B687B617B693B617B681B68FA7811468B
:101F4800184603F017FF034603F00403042B1AD1C5
:101F5800FB785A013B69134403F5A0631A4604232E
:101F68009360FA78796813461B019B1A9B000B440F
:101F78004D3307221A707B681B68FA781146184699
:101F880004F09BFC9EE07B681B68FA7811461846B3
:101F980003F0F0FE034603F48073B3F5807F1BD192
:101FA800FB785A013B69134403F5A0631A464FF4C2
:101FB80080739360FA78796813461B019B1A9B001B
:101FC8000B444D3308221A707B681B68FA78114657
:101FD800184604F072FC75E07B681B68FA781146B5
:101FE800184603F0C7FE034603F00803082B1AD16E
:101FF800FB785A013B69134403F5A0631A4608238A
:102008009360FA78796813461B019B1A9B000B446E
:102018004D3306221A707B681B68FA7811461846F9
:1020280004F04BFC4EE07B681B68FA7811461846B2
:1020380003F0A0FE034603F48063B3F5806F1BD161
:10204800FB785A013B69134403F5A0631A464FF421
:1020580080639360FA78796813461B019B1A9B008A
:102068000B444D3309221A707B681B68FA781146B5
:10207800184604F022FC25E07B681B68FA781146B4
:10208800184603F077FE034603F08003802B19D12E
:10209800FB785A013B69134403F5A0631A46802371
:1020A8009360FA78796813461B019B1A9B000B44CE
:1020B8004D3307221A707B681B68FA781146184658
:1020C80004F0FBFB7B681B68FA781146184603F09E
:1020D80051FE034603F40073B3F5007F12D17B6809
:1020E8001B68FA781146184604F0E7FBFB785A019A
:1020F8003B69134403F5A0631A464FF400739360D9
:1021080000F075BD7B681B68FA781146184603F025
:1021180031FE034603F00103012B40F02881FB78D0
:102128005A013B69134403F5A0631A4620239360C0
:10213800FA78796813461B019B1A9B000B441B33E2
:102148001B78012B19D1FA78796813461B019B1A61
:102158009B000B441B3300221A70FB785A013B6921
:10216800134403F5A0635B68FA7851013A690A449D
:1021780002F5A06223F4803353607B689B79002BBF
:102188001BD0FA78796813461B019B1A9B000B44F5
:1021980030331968FB785A013B69134403F5A0638F
:1021A8001B69C3F31203FA78C91A786813461B012E
:1021B8009B1A9B00034438331960FA7879681346F0
:1021C8001B019B1A9B000B444D3301221A70FA78AD
:1021D800796813461B019B1A9B000B444433002269
:1021E8001A60FB785A013B69134403F5A0631A4649
:1021F80001239360FA78796813461B019B1A9B00A8
:102208000B4426331B78002B0AD0FA7879681346DA
:102218001B019B1A9B000B4426331B78022B10D101
:102228007B681B68FA781146184604F046FBFB7871
:102238005A013B69134403F5A0631A4610239360BF
:102248003DE0FA78796813461B019B1A9B000B4402
:1022580026331B78032B0AD0FA78796813461B01BA
:102268009B1A9B000B4426331B78012B27D1FB7844
:102278005A013B69134403F5A0631B68FA785101BE
:102288003A690A4402F5A06243F000531360FA78F1
:10229800796813461B019B1A9B000B444C3301229F
:1022A8001A70FA78796813461B019B1A9B000B4435
:1022B8004C331A78FB781946786806F057FE7B6825
:1022C8009B79012B3BD1FA78796813461B019B1A3D
:1022D8009B000B4438331968FA78786813461B0159
:1022E8009B1A9B00034428331B880B44591EFA7819
:1022F800786813461B019B1A9B00034428331B88EC
:10230800B1FBF3F303F00103002B00F07084FA78BB
:10231800796813461B019B1A9B000B443C331B78BE
:10232800FA7883F00103D8B2796813461B019B1A27
:102338009B000B443C3302461A7000F058BCFA78F4
:10234800796813461B019B1A9B000B443C331B788E
:10235800FA7883F00103D8B2796813461B019B1AF7
:102368009B000B443C3302461A7000F040BC7B686B
:102378001B68FA781146184603F0FCFC034603F084
:102388002003202B31D1FB785A013B69134403F514
:10239800A0631A4620239360FA78796813461B01D4
:1023A8009B1A9B000B441A331B78012B40F01F84A7
:1023B800FA78796813461B019B1A9B000B441B3360
:1023C80001221A70FA78796813461B019B1A9B0040
:1023D8000B444D3303221A707B681B68FA78114648
:1023E800184604F06AFA00F002BC7B681B68FA78A9
:1023F8001146184603F0BEFC034603F00203022B05
:1024080040F00583FB785A013B69134403F5A06348
:102418001A4602239360FA78796813461B019B1ABF
:102428009B000B444D331B78012B14D1FA78796843
:1024380013461B019B1A9B000B444D3302221A7052
:10244800FA78796813461B019B1A9B000B444C339E
:1024580001221A70CCE2FA78796813461B019B1A9C
:102468009B000B444D331B78062B14D1FA787968FE
:1024780013461B019B1A9B000B444D3302221A7012
:10248800FA78796813461B019B1A9B000B444C335E
:1024980005221A70ACE2FA78796813461B019B1A78
:1024A8009B000B444D331B78072B0BD0FA787968C7
:1024B80013461B019B1A9B000B444D331B78092BB9
:1024C80040F0A680FA78796813461B019B1A9B0096
:1024D8000B444D3302221A70FA78796813461B01AF
:1024E8009B1A9B000B4444331B68591C786813469D
:1024F8001B019B1A9B00034444331960FA787968DE
:1025080013461B019B1A9B000B4444331B68022B88
:1025180043D9FA78796813461B019B1A9B000B4430
:10252800443300221A60FA78796813461B019B1A13
:102538009B000B441A331B78012B23D1FA78796856
:1025480013461B019B1A9B000B441B3300221A7075
:10255800FA78796813461B019B1A9B000B441C33BD
:1025680000221A70FB785A013B69134403F5A063F3
:102578005B68FA7851013A690A4402F5A06223F4CB
:1025880080335360FA78796813461B019B1A9B00C5
:102598000B444C3304221A7029E2FA7879681346FE
:1025A8001B019B1A9B000B444C3302221A70FA78C9
:1025B800796813461B019B1A9B000B4426331B7832
:1025C800002B0BD0FA78796813461B019B1A9B00E5
:1025D8000B4426331B78022B40F00982FB785A0102
:1025E8003B69134403F5A0631B68FB60FB6823F099
:1025F8008043FB60FB6843F00043FB60FB785A01B3
:102608003B69134403F5A0631A46FB681360EEE1C7
:10261800FA78796813461B019B1A9B000B444D33CB
:102628001B78052B40F0C880FA78796813461B019F
:102638009B1A9B000B444D3302221A70FA78796872
:1026480013461B019B1A9B000B441B331B78012B61
:1026580040F0CE81FA78796813461B019B1A9B00DB
:102668000B4426331B78032B6BD1FA787968134611
:102678001B019B1A9B000B4448331B68591C786844
:1026880013461B019B1A9B00034448331960FA78D0
:10269800796813461B019B1A9B000B4448331B683F
:1026A800022B43D9FA78796813461B019B1A9B00C1
:1026B8000B44483300221A60FA78796813461B01E4
:1026C8009B1A9B000B441B3300221A70FA78796816
:1026D80013461B019B1A9B000B4444331B68022BB7
:1026E80009D8FA78796813461B019B1A9B000B449A
:1026F8001C3301221A70FB785A013B69134403F515
:10270800A0635B68FA7851013A690A4402F5A0624D
:1027180023F480335360FA78796813461B019B1AB7
:102728009B000B444C3304221A7014E0FA78796841
:1027380013461B019B1A9B000B444C3302221A7050
:1027480009E0FA78796813461B019B1A9B000B4431
:102758004C3302221A70FA78796813461B019B1AC7
:102768009B000B4426331B78002B0BD0FA78796832
:1027780013461B019B1A9B000B4426331B78022B24
:1027880040F03681FB785A013B69134403F5A06396
:102798001B68FB60FB6823F08043FB60FB6843F029
:1027A8000043FB60FB785A013B69134403F5A063BF
:1027B8001A46FB6813601BE1FA78796813461B0117
:1027C8009B1A9B000B444D331B78032B40F08180F0
:1027D800FA78796813461B019B1A9B000B444D330A
:1027E80002221A70FA78796813461B019B1A9B001B
:1027F8000B441B331B78012B40F0FA80FA78796878
:1028080013461B019B1A9B000B444C3302221A707F
:10281800FB785A013B69134403F5A0635B68FA78B7
:1028280051013A690A4402F5A06243F480335360C7
:10283800FB785A013B69134403F5A063DB68FA7817
:1028480051013A690A4402F5A06243F04003D3609B
:10285800FB785A013B69134403F5A063DB68FA78F7
:1028680051013A690A4402F5A06223F02003D360BB
:10287800FA78796813461B019B1A9B000B44263390
:102888001B78002B0BD0FA78796813461B019B1A2A
:102898009B000B4426331B78022B40F0A980FB7861
:1028A8005A013B69134403F5A0631B68FB60FB688E
:1028B80023F08043FB60FB6843F00043FB60FB7838
:1028C8005A013B69134403F5A0631A46FB68136079
:1028D8008EE0FA78796813461B019B1A9B000B441B
:1028E8004D331B78042B43D1FA78796813461B01C2
:1028F8009B1A9B000B444D3302221A70FA787968B0
:1029080013461B019B1A9B000B444C3302221A707E
:10291800FA78796813461B019B1A9B000B442633EF
:102928001B78002B0AD0FA78796813461B019B1A8A
:102938009B000B4426331B78022B59D1FB785A0194
:102948003B69134403F5A0631B68FB60FB6823F035
:102958008043FB60FB6843F00043FB60FB785A014F
:102968003B69134403F5A0631A46FB6813603FE014
:10297800FA78796813461B019B1A9B000B444D3368
:102988001B78082B26D1FA78796813461B019B1A05
:102998009B000B444D3302221A70FA78796813466B
:1029A8001B019B1A9B000B4444331B68591C786815
:1029B80013461B019B1A9B00034444331960FA78A1
:1029C800796813461B019B1A9B000B444C33042265
:1029D8001A700DE0FA78796813461B019B1A9B0060
:1029E8000B444D331B78022B00F0008100E000BF40
:1029F800FA78796813461B019B1A9B000B444C33E9
:102A08001A78FB781946786806F0B0FAEFE07B6828
:102A18001B68FA781146184603F0ACF9034603F030
:102A28004003402B2FD1FB785A013B69134403F52F
:102A3800A0631A4640239360FA78796813461B010D
:102A48009B1A9B000B444D3305221A70FA7879685B
:102A580013461B019B1A9B000B441A331B78002B4F
:102A680009D1FA78796813461B019B1A9B000B441D
:102A7800443300221A607B681B68FA7811461846AE
:102A880003F01BFFB3E07B681B68FA781146184611
:102A980003F070F9034603F01003102B40F0A780F1
:102AA800FA78796813461B019B1A9B000B4426335E
:102AB8001B78032B1BD1FA78796813461B019B1AE4
:102AC8009B000B44443300221A60FA787968134655
:102AD8001B019B1A9B000B444D3304221A707B6820
:102AE8001B68FA781146184603F0E7FE3FE0FA78CB
:102AF800796813461B019B1A9B000B4426331B78ED
:102B0800002B0AD0FA78796813461B019B1A9B00A0
:102B18000B4426331B78022B29D1FA78796813469F
:102B28001B019B1A9B000B44443300221A607B68EC
:102B38009B79002B0AD0FA78796813461B019B1AF7
:102B48009B000B441B331B78012B10D1FA78796852
:102B580013461B019B1A9B000B444D3304221A7029
:102B68007B681B68FA781146184603F0A6FEFA78C7
:102B7800796813461B019B1A9B000B441B331B7877
:102B8800012B29D1FA78796813461B019B1A9B00FF
:102B98000B441B3300221A70FB785A013B6913441B
:102BA80003F5A0635B68FA7851013A690A4402F5B3
:102BB800A06223F480335360FB785A013B691344C5
:102BC80003F5A063DB68FA7851013A690A4402F513
:102BD800A06243F02003D360FB785A013B69134499
:102BE80003F5A0631A461023936000E000BF18376E
:102BF800BD4680BD80B586B000AF78600B46FB70DF
:102C08007B681B687B617B693B617B681B68FA7822
:102C18001146184603F0AEF8034603F00403042BEC
:102C28001BD1FB785A013B69134403F5A0631A468C
:102C380004239360FA78796813461B019B1A9B005A
:102C48000B444D3307221A707B681B68FA781146CB
:102C5800184603F032FE00F089BC7B681B68FA78DE
:102C68001146184603F086F8034603F02003202B8C
:102C780040F08280FB785A013B69134403F5A06356
:102C88001A4620239360FA78796813461B019B1A29
:102C98009B000B4419331B78012B24D1FA787968EF
:102CA80013461B019B1A9B000B44193300221A7010
:102CB800FA78796813461B019B1A9B000B444C3326
:102CC80002221A70FA78796813461B019B1A9B0036
:102CD8000B444D3303221A707B681B68FA7811463F
:102CE800184603F0EAFDFA78796813461B019B1A27
:102CF8009B000B441A331B78012B40F03784FA7879
:102D0800796813461B019B1A9B000B441B331B78E5
:102D1800002B40F02B84FA78796813461B019B1A24
:102D28009B000B4426331B78012B09D0FA7879686D
:102D380013461B019B1A9B000B441B3301221A707C
:102D4800FA78796813461B019B1A9B000B444D3394
:102D580003221A707B681B68FA781146184603F03C
:102D6800ACFDFA78796813461B019B1A9B000B444B
:102D7800443300221A60F9E37B681B68FA7811462D
:102D8800184602F0F7FF034603F40073B3F5007F1B
:102D980011D1FB785A013B69134403F5A0631A4625
:102DA8004FF4007393607B681B68FA7811461846E5
:102DB80003F083FDDAE37B681B68FA78114618464E
:102DC80002F0D8FF034603F00103012B68D1FA781B
:102DD800796813461B019B1A9B000B44443300225D
:102DE8001A607B681B68FA781146184602F0C2FF21
:102DF800034603F04003402B12D1FA787968134652
:102E08001B019B1A9B000B44193301221A70FB7893
:102E18005A013B69134403F5A0631A4640239360A3
:102E2800FA78796813461B019B1A9B000B441B33E5
:102E38001B78002B19D0FA78796813461B019B1A66
:102E48009B000B441B3300221A70FB785A013B6924
:102E5800134403F5A0635B68FA7851013A690A44A0
:102E680002F5A06223F480335360FB785A013B6972
:102E7800134403F5A0631A4601239360FA7879682E
:102E880013461B019B1A9B000B444D3301221A70F9
:102E98007B681B68FA781146184603F00EFD65E357
:102EA8007B681B68FA781146184602F063FF0346F0
:102EB80003F04003402B39D1FA78796813461B0197
:102EC8009B1A9B000B444D3305221A70FA787968D7
:102ED80013461B019B1A9B000B441A331B78002BCB
:102EE80009D1FA78796813461B019B1A9B000B4499
:102EF800193301221A70FA78796813461B019B1A54
:102F08009B000B44443300221A607B681B68FA78E4
:102F18001146184603F0D1FCFB785A013B6913446B
:102F280003F5A0631A46402393601FE37B681B6880
:102F3800FA781146184602F01DFF034603F008030D
:102F4800082B1AD1FB785A013B69134403F5A06397
:102F58001A4608239360FA78796813461B019B1A6E
:102F68009B000B444D3306221A707B681B68FA7865
:102F78001146184603F0A1FCF8E27B681B68FA7852
:102F88001146184602F0F6FE034603F01003102B14
:102F980044D1FA78796813461B019B1A9B000B44AD
:102FA800443300221A60FA78796813461B019B1A89
:102FB8009B000B444D3304221A70FA787968134643
:102FC8001B019B1A9B000B4419331B78002B14D14F
:102FD800FA78796813461B019B1A9B000B44183337
:102FE8001B78002B09D1FA78796813461B019B1AC4
:102FF8009B000B44193301221A707B681B68FA780E
:103008001146184603F059FCFB785A013B691344F2
:1030180003F5A0631A4610239360A7E27B681B6838
:10302800FA781146184602F0A5FE034603F080031D
:10303800802B40F083807B689B79002B11D1FA7834
:10304800796813461B019B1A9B000B444D330722DA
:103058001A707B681B68FA781146184603F02DFC35
:1030680062E0FA78796813461B019B1A9B000B44AF
:1030780044331B68591C786813461B019B1A9B0034
:10308800034444331960FA78796813461B019B1A84
:103098009B000B4444331B68022B22D9FA787968C9
:1030A80013461B019B1A9B000B44443300221A60F1
:1030B800FA78796813461B019B1A9B000B444C3322
:1030C80004221A70FA78796813461B019B1A9B0030
:1030D8000B444C331A78FB781946786805F046FF9C
:1030E80022E0FA78796813461B019B1A9B000B446F
:1030F8004C3302221A70FB785A013B69134403F5DA
:10310800A0631B68FB60FB6823F08043FB60FB68DF
:1031180043F00043FB60FB785A013B69134403F515
:10312800A0631A46FB681360FB785A013B69134495
:1031380003F5A0631A468023936017E27B681B6837
:10314800FA781146184602F015FE034603F4806328
:10315800B3F5806F1BD1FA78796813461B019B1A67
:103168009B000B444D3309221A707B681B68FA7860
:103178001146184603F0A1FBFB785A013B6913443A
:1031880003F5A0631A464FF480639360EEE17B6811
:103198001B68FA781146184602F0ECFD034603F066
:1031A8000203022B40F0DF81FB785A013B6913448C
:1031B80003F5A0631A4602239360FA7879681346E8
:1031C8001B019B1A9B000B444D331B78012B40F0CD
:1031D8009380FA78796813461B019B1A9B000B446D
:1031E8004D3302221A70FA78796813461B019B1A2C
:1031F8009B000B444C3301221A70FA787968134605
:103208001B019B1A9B000B4426331B78022B0BD007
:10321800FA78796813461B019B1A9B000B442633E6
:103228001B78032B40F090817B689B79002B15D18C
:10323800FA78796813461B019B1A9B000B443D33AF
:103248001B78FA7883F00103D8B2796813461B011A
:103258009B1A9B000B443D3302461A707B689B798E
:10326800012B40F07181FA78796813461B019B1A8B
:103278009B000B4434331B68002B00F06581FA78FF
:10328800796813461B019B1A9B000B443433196859
:10329800FA78786813461B019B1A9B00034428336D
:1032A8001B880B44591EFA78786813461B019B1A31
:1032B8009B00034428331B88B1FBF3F3BB60BB6856
:1032C80003F00103002B00F03F81FA787968134678
:1032D8001B019B1A9B000B443D331B78FA7883F043
:1032E8000103D8B2796813461B019B1A9B000B4453
:1032F8003D3302461A7027E1FA78796813461B01B4
:103308009B1A9B000B444D331B78032B20D1FA7872
:10331800796813461B019B1A9B000B444D3302220C
:103328001A70FA78796813461B019B1A9B000B44A4
:103338001B331B78012B40F00781FA787968134614
:103348001B019B1A9B000B444C3302221A70FBE0B2
:10335800FA78796813461B019B1A9B000B444D337E
:103368001B78042B3AD1FA78796813461B019B1A0B
:103378009B000B444D3302221A70FA787968134681
:103388001B019B1A9B000B444C3302221A70FA78DB
:10339800796813461B019B1A9B000B441B331B784F
:1033A800012B40F0D180FA78796813461B019B1AEB
:1033B8009B000B441B3300221A70FB785A013B69AF
:1033C800134403F5A0635B68FA7851013A690A442B
:1033D80002F5A06223F480335360B5E0FA78796887
:1033E80013461B019B1A9B000B444D331B78052B7E
:1033F80014D1FA78796813461B019B1A9B000B4479
:103408004D3302221A70FA78796813461B019B1A09
:103418009B000B444C3302221A7095E0FA787968C5
:1034280013461B019B1A9B000B444D331B78062B3C
:1034380014D1FA78796813461B019B1A9B000B4438
:103448004D3302221A70FA78796813461B019B1AC9
:103458009B000B444C3305221A7075E0FA787968A2
:1034680013461B019B1A9B000B444D331B78072BFB
:103478000AD0FA78796813461B019B1A9B000B4403
:103488004D331B78092B70D1FA78796813461B01E4
:103498009B1A9B000B444D3302221A70FA78796804
:1034A80013461B019B1A9B000B4444331B68591C91
:1034B800786813461B019B1A9B0003444433196028
:1034C800FA78796813461B019B1A9B000B44443316
:1034D8001B68022B14D9FA78796813461B019B1ACA
:1034E8009B000B44443300221A60FA78796813462B
:1034F8001B019B1A9B000B444C3304221A7022E0D8
:10350800FA78796813461B019B1A9B000B444C33CD
:1035180002221A70FB785A013B69134403F5A06331
:103528001B68FB60FB6823F08043FB60FB6843F08B
:103538000043FB60FB785A013B69134403F5A06321
:103548001A46FB68136000BFFA78796813461B01B6
:103558009B1A9B000B444C331A78FB781946786801
:1035680005F004FD02E000BF00E000BF1837BD46CB
:1035780080BD80B58AB000AF78607B681B687B62CD
:103588007B6A3B627B681B681B6AFB61FB6903F013
:103598000F03BB61FB695B0C03F00F037B61FB69E5
:1035A8001B09C3F30A033B617B69022B04D07B69C7
:1035B800052B00F0B680B7E03B69002B00F0B38024
:1035C8007968BA6913461B019B1A9B000B442C337C
:1035D8001B68002B00F0A7807968BA6913461B01A5
:1035E8009B1A9B000B4438331A683B69D1187868DA
:1035F800BA6913461B019B1A9B00034434331B68AA
:10360800994200F283807B6818687968BA69134622
:103618001B019B1A9B000B442C331B683A6992B21E
:10362800194602F03CFB7968BA6913461B019B1ADC
:103638009B000B442C331A683B69D1187868BA6927
:1036480013461B019B1A9B0003442C3319607968AD
:10365800BA6913461B019B1A9B000B4438331A683E
:103668003B69D1187868BA6913461B019B1A9B00FD
:10367800034438331960BB695A013B6A134403F5A4
:10368800A0631B69DB0CC3F30903FB607968BA69A3
:1036980013461B019B1A9B000B4428331B881A46B0
:1036A8003B6993423FD1FB68002B3CD0BB695A0170
:1036B8003B6A134403F5A0631B68BB60BB6823F037
:1036C8008043BB60BB6843F00043BB60BB695A01E1
:1036D8003B6A134403F5A0631A46BB681360796814
:1036E800BA6913461B019B1A9B000B443C331B7899
:1036F80083F00103D8B27968BA6913461B019B1A93
:103708009B000B443C3302461A700CE07968BA6996
:1037180013461B019B1A9B000B444C3304221A705E
:1037280001E000BF00E000BF00BF2837BD4680BDF4
:1037380080B586B000AF78607B681B687B617B6969
:103748003B613B6903F588631B68FB603B6903F5D4
:1037580088631B68BB60BB6823F02E03BB60FB68F3
:1037680003F00203022B0BD1FB6803F00103012BCA
:1037780002D1786805F0DEFBBB6843F00203BB604A
:10378800FB6803F00803082B32D1BB6843F0080339
:10379800BB60FB6803F00403042B26D17B685B7ACB
:1037A800022B13D1FB6803F4C023B3F5802F06D195
:1037B8007B681B680221184602F000FC11E07B6858
:1037C8001B680121184602F0F9FB0AE07B68DB79E7
:1037D800012B06D13B6903F580631A464EF6602338
:1037E8005360786805F0D0FB02E0786805F0DAFBF2
:1037F800FB6803F02003202B03D1BB6843F02003B0
:10380800BB603B6903F588631A46BB68136000BF59
:103818001837BD4680BD000080B584B000AF786021
:103828007B68002B01D101232BE17B6893F83D30A5
:10383800DBB2002B06D17B68002283F83C20786835
:10384800FDF746F97B68242283F83D207B681B68D6
:103858001A687B681B6822F001021A607B681B6883
:103868001A687B681B6842F400421A607B681B6810
:103878001A687B681B6822F400421A6001F020FA7B
:10388800F8607B685B68814A934207D8FB68804A86
:10389800934294BF01230023DBB206E0FB687D4A14
:1038A800934294BF01230023DBB2002B01D00123F4
:1038B800E7E0FB68784AA2FB03239B0CBB607B68AC
:1038C8001B685B6823F03F017B681B68BA680A4382
:1038D8005A607B681B681B6A23F03F017B685B6842
:1038E8006A4A934202D8BB68013309E0BB684FF4C7
:1038F800967202FB03F3694AA2FB03239B09013377
:103908007A6812680B4313627B681B68DB6923F4CF
:103918004F4222F0FF027B685B685C498B4219D8F2
:10392800FB68591E7B685B685B00B1FBF3F3591CAD
:1039380040F6FC730B40002B0AD0FB68591E7B68CD
:103948005B685B00B1FBF3F30133C3F30B0351E096
:1039580004234FE07B689B68002B11D1FB68581E3D
:103968007B6859680B465B000B44B0FBF3F30133EB
:10397800C3F30B03002B0CBF01230023DBB212E0BF
:10398800FB68581E7B6859680B469B000B449900DE
:103998000B44B0FBF3F30133C3F30B03002B0CBF51
:1039A80001230023DBB2002B01D0012322E07B6836
:1039B8009B68002B0ED1FB68581E7B6859680B4624
:1039C8005B000B44B0FBF3F30133C3F30B0343F485
:1039D80000430FE0FB68581E7B6859680B469B0044
:1039E8000B4499000B44B0FBF3F30133C3F30B030F
:1039F80043F44043796809681343CB617B681B68CB
:103A08001B6823F0C0017B68DA697B681B6A1A436C
:103A18007B681B680A431A607B681B689B6823F4F1
:103A2800034323F0FF037A6811697A68D268114367
:103A38007A6812680B4393607B681B68DB6823F025
:103A4800FF017B685A697B689B691A437B681B681E
:103A58000A43DA607B681B681A687B681B6842F057
:103A680001021A607B6800221A647B68202283F8AE
:103A78003D207B6800221A637B68002283F83E2081
:103A8800002318461037BD4680BD00BFA086010040
:103A98007F841E00FF083D0083DE1B43D34D621068
:103AA80080B588B000AF78607B68002B01D1012316
:103AB80028E17B6893F84130DBB2002B09D17B68A1
:103AC800002283F840207B68904A5A637868FDF7A3
:103AD80047F87B68022283F841207B681B68DB6912
:103AE8007A68126823F47B6323F00F03D3617B6841
:103AF8001B6802221A627B685B69022B60D07B68B4
:103B0800DB68002B02D110237B6101E020237B615D
:103B18007B689B68202B02D87B695B007B61012056
:103B280001F0C4F9F8607B681B69B3F5007F25D103
:103B38007B68DB68002B10D07B699B00FA68B2FBBE
:103B4800F3F213469B0013445B001A467B685B69DB
:103B5800B2FBF3F305333B611FE07B69DB00FA68D6
:103B6800B2FBF3F213469B0013445B001A467B68D2
:103B78005B69B2FBF3F305333B610EE0FA687B69DE
:103B8800B2FBF3F213469B0013445B001A467B68B2
:103B98005B69B2FBF3F305333B613B695C4AA2FB0B
:103BA8000323DB083B613B6903F00103BB613A690E
:103BB800BB69D31A5B08FB61BB691B02BB6103E0ED
:103BC8000223FB610023BB61FB69012B02D9FB695E
:103BD800FF2B07D97B685B6C43F010027B685A6443
:103BE80001238FE07B681A69BB6942EA03017B689D
:103BF8001B68FA690A431A627B681B68DB6923F44D
:103C08007B6323F00F037A6851687A6892681143DE
:103C18007A68D26811437A6892690A431A437B68C2
:103C28001B6842F40062DA617B681B6A012B61D170
:103C38007B68384A5A637B681B68374A934201D1CC
:103C4800364B01E04FF04023DB697A68126832494D
:103C58008A4201D1314A01E04FF0402223F47B63CC
:103C680023F00F03D3617B681B682B4A934201D171
:103C78002A4B01E04FF0402302221A627B681B683E
:103C8800254A934201D1254B01E04FF04023DB69DF
:103C98007B817B685B68B3F5007F03D07B685B68DA
:103CA800002B03D14FF480733B6101E000233B619B
:103CB8003B699AB27B689B689BB213439AB27B6854
:103CC800DB689BB213439AB27B689B699BB2134330
:103CD8009AB27B8913439BB243F400637B817B6870
:103CE8001B680D4A934201D10C4B01E04FF0402371
:103CF8007A89DA617B6800225A647B68012283F83A
:103D08004120002318462037BD4680BD1F3E0008CD
:103D1800CDCCCCCC353F0008003800400034004002
:103D280080B483B000AF786000BF0C37BD465DF843
:103D3800047B704780B483B000AF786000BF0C3755
:103D4800BD465DF8047B704780B483B000AF7860EF
:103D580000BF0C37BD465DF8047B704780B582B064
:103D680000AF78607B685B6A1A887B681B68DA60DA
:103D78007B685B6A9A1C7B685A627B685B8D9BB226
:103D8800013B9AB27B685A857B685B8D9BB2002B9E
:103D98000ED17B681B685A687B681B6822F0A002FA
:103DA8005A607B68012283F841207868FFF7B8FFE2
:103DB80000BF0837BD4680BD80B582B000AF7860CF
:103DC8007B681B68DA687B68DB6A92B21A807B685A
:103DD800DB6A9A1C7B68DA627B685B8E9BB2013B6C
:103DE8009AB27B685A867B685B8E9BB2002B0ED199
:103DF8007B681B685A687B681B6822F060025A60FF
:103E08007B68012283F841207868FFF793FF00BFA1
:103E18000837BD4680BD80B586B000AF78607B6846
:103E28001B689B687B617B6893F84130DBB2042B8D
:103E38003AD17B6903F00103012B09D17B681B6828
:103E48005B6803F04003402B02D17868FFF7B4FFAA
:103E58007B6903F04003402B26D17B681B685B68B5
:103E680003F02003202B1FD17B681B685A687B68EE
:103E78001B6822F060025A6000233B617B681B6864
:103E8800DB683B617B681B689B683B613B697B68BF
:103E9800012283F841207B685B6C43F002027B6857
:103EA8005A647868FFF750FF7B6893F84130DBB2BB
:103EB800032B36D17B6903F00203022B09D17B68FF
:103EC8001B685B6803F08003802B02D17868FFF7DA
:103ED80045FF7B6903F00803082B22D17B681B6828
:103EE8005B6803F02003202B1BD17B681B685A6892
:103EF8007B681B6822F0A0025A600023FB607B6885
:103F08001B689B68FB60FB687B68012283F8412083
:103F18007B685B6C43F004027B685A647868FFF73F
:103F280013FF00BF1837BD4680BD000080B588B0BC
:103F380000AF78607B681B689B68FB617B681B68C7
:103F4800924A934201D1924B01E04FF040239B6883
:103F5800BB617B681B685B687B617B681B688B4AFD
:103F6800934201D18A4B01E04FF040235B683B61EB
:103F78007B685B68B3F5007F04D07B685B68002BC7
:103F880040F09980FB6903F00203022B07D17B699B
:103F980003F08003002B02D0786800F025F9BB6994
:103FA80003F00103012B07D13B6903F04003002B09
:103FB80002D0786800F0C8F9BB6903F04003402BD1
:103FC8003AD13B6903F02003002B35D07B681B688E
:103FD8006E4A934201D16E4B01E04FF040235A687C
:103FE8007B681B6869498B4201D1694B01E04FF03E
:103FF800402322F060025A607B681B685A687B681D
:104008001B6822F0A0025A600023FB607B681B68D3
:10401800DB68FB607B681B689B68FB60FB687B68F0
:10402800012283F841207B685B6C43F002027B68C5
:104038005A647868FFF788FEFB6903F00803082BC9
:1040480040F0C3807B6903F02003002B00F0BD80A3
:104058007B681B685A687B681B6822F0A0025A605C
:104068007B681B68494A934201D1494B01E04FF0F4
:1040780040235A687B681B6844498B4201D1444BF2
:1040880001E04FF0402322F060025A600023BB6039
:104098007B681B689B68BB60BB687B68012283F8F0
:1040A80041207B685B6C43F004027B685A64786843
:1040B800FFF74AFE89E0BB6903F00203022B07D130
:1040C8003B6903F08003002B02D0786800F0BEF84B
:1040D800FB6903F00103012B07D17B6903F040035F
:1040E800002B02D0786800F0FDF8FB6903F040036C
:1040F800402B2FD17B6903F02003002B2AD07B684B
:104108001B685A687B681B6822F060025A607B68EB
:104118001B681E4A934201D11D4B01E04FF040231A
:104128005A687B681B6819498B4201D1184B01E01A
:104138004FF0402322F0A0025A607B68012283F8E6
:1041480041207B685B6C43F002027B685A647868A4
:10415800FFF7FAFDBB6903F00803082B36D13B696A
:1041680003F02003002B31D07B681B68074A934279
:1041780001D1074B01E04FF040235A687B681B6868
:1041880002498B4206D1024B06E000BF00380040CE
:10419800003400404FF0402322F0A0025A607B68B0
:1041A8001B685A687B681B6822F060025A607B684B
:1041B800012283F841207B685B6C43F004027B6832
:1041C8005A647868FFF7C0FD00E000BF00BF2037E1
:1041D800BD4680BD80B483B000AF786000BF0C37A7
:1041E800BD465DF8047B704780B582B000AF78604B
:1041F8007B685B6A991C7A6851621A887B681B68BD
:10420800DA607B685B8D9BB2013B9AB27B685A850A
:104218007B685B8D9BB2002B13D17B681B685A6847
:104228007B681B6822F0A0025A607B685B8E9BB299
:10423800002B06D17B68012283F841207868FFF7BC
:10424800C9FF00BF0837BD4680BD000080B582B0F9
:1042580000AF78607B685B6A991C7A68516219883C
:104268007B681B681D4A934201D11D4B01E04FF04A
:1042780040230A46DA607B685B8D9BB2013B9AB2A9
:104288007B685A857B685B8D9BB2002B21D17B684C
:104298001B68124A934201D1114B01E04FF04023B1
:1042A8005A687B681B680D498B4201D10C4B01E0B1
:1042B8004FF0402322F0A0025A607B685B8E9BB2CD
:1042C800002B06D17B68012283F841207868FFF72C
:1042D80081FF00BF0837BD4680BD00BF00380040E1
:1042E8000034004080B582B000AF78607B681B68FE
:1042F800D8687B68DB6A991C7A68D16282B21A80B6
:104308007B685B8E9BB2013B9AB27B685A867B685E
:104318005B8E9BB2002B13D17B681B685A687B6845
:104328001B6822F060025A607B685B8D9BB2002B91
:1043380006D17B68012283F841207868FFF74AFF9D
:1043480000BF0837BD4680BD80B582B000AF786039
:104358007B681B68204A934201D1204B01E04FF053
:104368004023D8687B68DB6A991C7A68D16282B27C
:104378001A807B685B8E9BB2013B9AB27B685A8637
:104388007B685B8E9BB2002B21D17B681B68124A2D
:10439800934201D1114B01E04FF040235A687B68EA
:1043A8001B680D498B4201D10C4B01E04FF04023B3
:1043B80022F060025A607B685B8D9BB2002B06D1AD
:1043C8007B68012283F841207868FFF703FF00BF6C
:1043D8000837BD4680BD00BF0038004000340040AB
:1043E80080B586B000AF78607B68002B01D10123CF
:1043F80067E27B681B6803F00103002B75D0884BCC
:104408009B6803F00C03042B0CD0854B9B6803F0CE
:104418000C03082B12D1824B5B6803F48003B3F5BD
:10442800800F0BD17E4B1B6803F40033002B5BD04D
:104438007B685B68002B57D1012342E27B685B688D
:10444800B3F5803F06D1764B1B68754A43F4803339
:1044580013601DE07B685B68B3F5A02F0CD1704B2F
:104468001B686F4A43F4802313606D4B1B686C4ACA
:1044780043F4803313600BE0694B1B68684A23F4EC
:1044880080331360664B1B68654A23F480231360EE
:104498007B685B68002B13D0FCF778FD386108E077
:1044A800FCF774FD02463B69D31A642B01D9032338
:1044B80007E25B4B1B6803F40033002BF0D014E0D9
:1044C800FCF764FD386108E0FCF760FD02463B69D3
:1044D800D31A642B01D90323F3E1514B1B6803F46E
:1044E8000033002BF0D100E000BF7B681B6803F0AD
:1044F8000203002B63D04A4B9B6803F00C03002B8C
:104508000BD0474B9B6803F00C03082B1CD1444B82
:104518005B6803F48003002B16D1414B1B6803F042
:104528000203002B05D07B68DB68012B01D0012337
:10453800C7E13B4B1B6823F0F8027B681B69DB0073
:10454800374913430B603AE07B68DB68002B20D0C7
:10455800344B01221A60FCF719FD386108E0FCF7BA
:1045680015FD02463B69D31A022B01D90323A8E1A2
:104578002B4B1B6803F00203002BF0D0284B1B6861
:1045880023F0F8027B681B69DB00254913430B60A5
:1045980015E0244B00221A60FCF7F8FC386108E0AB
:1045A800FCF7F4FC02463B69D31A022B01D903231A
:1045B80087E11B4B1B6803F00203002BF0D17B68DB
:1045C8001B6803F00803002B36D07B685B69002B5F
:1045D80016D0154B01221A60FCF7D8FC386108E0A8
:1045E800FCF7D4FC02463B69D31A022B01D90323FA
:1045F80067E10B4B5B6F03F00203002BF0D01BE06D
:10460800094B00221A60FCF7C1FC38610EE0FCF788
:10461800BDFC02463B69D31A022B07D9032350E19C
:104628000038024000004742800E4742884B5B6FCB
:1046380003F00203002BEAD17B681B6803F0040334
:10464800002B00F097800023FB75814B1B6C03F057
:104658008053002B0FD10023BB607D4B1B6C7C4A21
:1046680043F0805313647A4B1B6C03F08053BB6098
:10467800BB680123FB75774B1B6803F48073002B21
:1046880018D1744B1B68734A43F480731360FCF7AA
:104698007DFC386108E0FCF779FC02463B69D31AD7
:1046A800022B01D903230CE16A4B1B6803F48073C6
:1046B800002BF0D07B689B68012B06D1644B1B6FE5
:1046C800634A43F0010313671CE07B689B68052B72
:1046D8000CD15F4B1B6F5E4A43F0040313675C4BBE
:1046E8001B6F5B4A43F0010313670BE0584B1B6FCA
:1046F800574A23F001031367554B1B6F544A23F0A5
:10470800040313677B689B68002B15D0FCF73EFCFD
:1047180038610AE0FCF73AFC02463B69D31A41F2D9
:104728008832934201D90323CBE0494B1B6F03F036
:104738000203002BEED014E0FCF728FC38610AE0F5
:10474800FCF724FC02463B69D31A41F288329342B3
:1047580001D90323B5E03E4B1B6F03F00203002B86
:10476800EED1FB7D012B05D1394B1B6C384A23F068
:10477800805313647B689B69002B00F0A180344B45
:104788009B6803F00C03082B5CD07B689B69022BA9
:1047980041D1314B00221A60FCF7F8FB386108E080
:1047A800FCF7F4FB02463B69D31A022B01D9032319
:1047B80087E0274B1B6803F00073002BF0D17B6860
:1047C800DA697B681B6A1A437B685B6A9B011A4338
:1047D8007B689B6A5B08013B1B041A437B68DB6AA6
:1047E8001B061B4913434B601B4B01221A60FCF745
:1047F800CDFB386108E0FCF7C9FB02463B69D31AD8
:10480800022B01D903235CE0114B1B6803F00073F2
:10481800002BF0D054E0104B00221A60FCF7B6FBD6
:10482800386108E0FCF7B2FB02463B69D31A022B59
:1048380001D9032345E0064B1B6803F00073002BE6
:10484800F0D13DE07B689B69012B07D1012338E05B
:104858000038024000700040600047421B4B5B6814
:10486800FB607B689B69012B28D0FB6803F48002FE
:104878007B68DB699A4221D1FB6803F03F027B68C1
:104888001B6A9A421AD1FA6847F6C07313407A68CD
:10489800526A9201934211D1FB6803F440327B685B
:1048A8009B6A5B08013B1B049A4207D1FB6803F033
:1048B80070627B68DB6A1B069A4201D0012300E024
:1048C800002318461837BD4680BD00BF0038024097
:1048D80080B584B000AF786039607B68002B01D167
:1048E8000123CCE0684B1B6803F007033A689A423F
:1048F8000CD9654B3A68D2B21A70634B1B6803F047
:1049080007033A689A4201D00123B8E07B681B6824
:1049180003F00203002B20D07B681B6803F004031C
:10492800002B05D0594B9B68584A43F4E0539360D9
:104938007B681B6803F00803002B05D0534B9B686A
:10494800524A43F460439360504B9B6823F0F00253
:104958007B689B684D4913438B607B681B6803F039
:104968000103002B44D07B685B68012B07D1474BC0
:104978001B6803F40033002B19D101237FE07B6807
:104988005B68022B03D07B685B68032B07D13F4B26
:104998001B6803F00073002B09D101236FE03B4B28
:1049A8001B6803F00203002B01D1012367E0374B9A
:1049B8009B6823F003027B685B68344913438B6070
:1049C800FCF7E4FAF8600AE0FCF7E0FA0246FB6854
:1049D800D31A41F28832934201D903234FE02B4B7B
:1049E8009B6803F00C027B685B689B009A42EBD1E2
:1049F800254B1B6803F007033A689A420CD2224BF6
:104A08003A68D2B21A70204B1B6803F007033A6861
:104A18009A4201D0012332E07B681B6803F004034B
:104A2800002B08D0194B9B6823F4E0527B68DB68A5
:104A3800164913438B607B681B6803F00803002B3F
:104A480009D0124B9B6823F460427B681B69DB002A
:104A58000E4913438B6000F021F802460B4B9B680C
:104A68001B0903F00F030A49CB5C22FA03F3094A36
:104A78001360094B1B681846FCF744FA00231846D4
:104A88001037BD4680BD00BF003C024000380240E0
:104A98006896000800000020040000202DE9B04FAF
:104AA80094B000AF00237B640023FB6400233B64C5
:104AB8000023BB64794B9B6803F00C03082B0DD0D3
:104AC800082B00F2E180002B02D0042B03D0DBE09E
:104AD800734BBB64DBE0734BBB64D8E06F4B5B6824
:104AE80003F03F037B646D4B5B6803F48003002B8A
:104AF80063D06A4B5B689B090022BB63FA63BB6B9C
:104B0800C3F308033B6300237B63D7E90C452246C4
:104B18002B464FF000004FF00001590141EAD261E5
:104B2800500102460B462146511A3961294663EB6A
:104B380001037B614FF000024FF00003D7E904AB9B
:104B480059468B01514643EA916351468A015146C1
:104B5800B2EB0108594663EB01094FF000024FF030
:104B680000034FEAC90343EA58734FEAC802904664
:104B78009946234618EB0303BB602B4649EB030316
:104B8800FB604FF000024FF00003D7E902452946C9
:104B98004B02214643EAD15321464A0210461946A0
:104BA8007B6C0022BB62FA62D7E90A23FBF708FB99
:104BB80002460B461346FB6458E0384B5B689B097A
:104BC800002218461146C0F308033B6200237B62AB
:104BD800D7E9088942464B464FF000004FF00001E4
:104BE800590141EAD261500102460B464146B2EBF7
:104BF800010A494663EB010B4FF000024FF0000336
:104C08004FEA8B1343EA9A634FEA8A12B2EB0A041B
:104C180063EB0B054FF000024FF00003EB0043EA93
:104C28005473E20014461D464346E3183B604B4666
:104C380045EB03037B604FF000024FF00003D7E918
:104C4800004529468B02214643EA915321468A02B0
:104C5800104619467B6C0022BB61FA61D7E906232E
:104C6800FBF7AEFA02460B461346FB640B4B5B6838
:104C78001B0C03F0030301335B003B64FA6C3B6CD1
:104C8800B2FBF3F3BB6402E0054BBB6400BFBB6C33
:104C980018465037BD46BDE8B08F00BF0038024007
:104CA8000024F40000127A0080B400AF034B1B68A4
:104CB8001846BD465DF8047B704700BF0000002021
:104CC80080B500AFFFF7F0FF0246054B9B689B0AD3
:104CD80003F007030349CB5C22FA03F3184680BDAF
:104CE800003802407896000880B586B000AF78603A
:104CF80000237B6100233B617B681B6803F0010391
:104D0800002B05D17B681B6803F00403002B35D00A
:104D1800624B00221A60FCF739F9786108E0FCF769
:104D280035F902467B69D31A022B01D90323B0E077
:104D38005B4B1B6803F00063002BF0D17B685B685A
:104D48009A017B689B681B0755491343C1F8843057
:104D5800524B01221A60FCF719F9786108E0FCF758
:104D680015F902467B69D31A022B01D9032390E077
:104D78004B4B1B6803F00063002BF0D07B681B686B
:104D880003F00203002B00F083800023FB60444BF8
:104D98001B6C434A43F080531364414B1B6C03F074
:104DA8008053FB60FB683F4B1B683E4A43F48073AB
:104DB8001360FCF7EBF8786108E0FCF7E7F80246C7
:104DC8007B69D31A022B01D9032362E0354B1B6898
:104DD80003F48073002BF0D0314B1B6F03F4407346
:104DE8003B613B69002B2FD07B68DB6803F4407381
:104DF8003A699A4228D02A4B1B6F23F440733B61CF
:104E0800294B01221A60284B00221A60244A3B6968
:104E18001367234B1B6F03F00103012B14D1FCF71D
:104E2800B5F878610AE0FCF7B1F802467B69D31A55
:104E380041F28832934201D903232AE0184B1B6FB1
:104E480003F00203002BEED07B68DB6803F44073A9
:104E5800B3F5407F0DD1124B9B6823F4F8127B68A1
:104E6800DB6823F0704323F440730D4913438B60D0
:104E780005E00B4B9B680A4A23F4F8139360084B30
:104E88001A6F7B68DB68C3F30B03054913430B6791
:104E9800002318461837BD4680BD00BF680047424A
:104EA8000038024000700040400E474280B487B08E
:104EB80000AF786000237B6100233B610023FB6027
:104EC8000023BB607B68012B3FD1244B9B6803F414
:104ED8000003FB60FB68002B06D0FB68B3F5000FEE
:104EE8002FD11F4B7B612FE01C4B5B6803F48003C1
:104EF800B3F5800F08D1194B5B6803F03F03194ADB
:104F0800B2FBF3F33B6107E0144B5B6803F03F032C
:104F1800154AB2FBF3F33B61104BD3F884309B097D
:104F2800C3F308023B6902FB03F3BB600B4BD3F8E6
:104F380084301B0F03F00703BA68B2FBF3F37B61FD
:104F480002E000237B6100BF00E000BF7B691846D8
:104F58001C37BD465DF8047B704700BF003802402F
:104F68000080BB0000127A000024F40080B584B0F1
:104F780000AF78600123FB737B68002B01D101230C
:104F880073E07B685B7FDBB2002B05D17B68002276
:104F98001A777868FBF764FE7B6802225A777B6889
:104FA8001B68DB6803F01003102B55D07B681B6867
:104FB800CA225A627B681B6853225A62786800F0DA
:104FC800D3FB0346FB73FB7B002B2CD17B681B6850
:104FD8009B687A68126823F4E00323F04003936027
:104FE8007B681B6899687B685A687B681B691A43E9
:104FF8007B685B691A437B681B680A439A607B6815
:105008001B687A68D2681A617B681B6819697B68B3
:105018009B681A047B681B680A431A61786800F069
:10502800DAFB0346FB73FB7B002B10D17B681B6804
:105038001A6C7B681B6822F480221A647B681B68E0
:10504800196C7B689A697B681B680A431A647B68D9
:105058001B68FF225A6201E00023FB73FB7B002BD5
:1050680002D17B6801225A77FB7B18461037BD4670
:1050780080BD90B587B000AFF860B9607A60002352
:105088007B61FB681B7F012B01D1022387E0FB6852
:1050980001221A77FB6802225A777B68002B26D1F7
:1050A800FB681B689B6803F04003002B02D1BB68B8
:1050B8000022DA70BB681B78184600F0B1FB034683
:1050C8001C04BB685B78184600F0AAFB03461B0269
:1050D8001C43BB689B78184600F0A2FB034644EAD1
:1050E8000302BB68DB789B0513437B6118E0FB6810
:1050F8001B689B6803F04003002B02D1BB680022A9
:10510800DA70BB681B781A04BB685B781B02134310
:10511800BA6892781A43BB68DB789B0513437B61B6
:10512800FB681B68CA225A62FB681B6853225A62D2
:10513800F86800F019FB0346FB74FB7C002B20D1B8
:10514800FB681A687B6903F07F3323F0FE43136022
:10515800FB681B689A68FB681B6822F480229A60C7
:10516800FB681B689968BB68DA68BB681B691A43E7
:10517800FB681B680A439A60F86800F02CFB03463A
:10518800FB74FB7C002B02D1FB6801225A77FB6879
:105198001B68FF225A62FB6800221A77FB7C1846BC
:1051A8001C37BD4690BD80B586B000AFF860B960C9
:1051B8007A6000237B61FB681B689A6ABB685A6047
:1051C800FB681B681B69C3F30E02BB689A60FB6827
:1051D8001B681B6803F07F3323F0FE437B617B6908
:1051E8001B0CDBB203F03F03DAB2BB681A707B69B1
:1051F8001B0ADBB203F07F03DAB2BB685A707B6923
:10520800DBB203F07F03DAB2BB689A707B699B0D4F
:10521800DBB203F00103DAB2BB68DA707B68002BFB
:105228001AD1BB681B78184600F018FB03461A46CB
:10523800BB681A70BB685B78184600F00FFB034622
:105248001A46BB685A70BB689B78184600F006FB84
:1052580003461A46BB689A70002318461837BD469D
:1052680080BD90B587B000AFF860B9607A60002360
:105278007B61FB681B7F012B01D1022371E0FB6876
:1052880001221A77FB6802225A777B68002B0ED11D
:10529800BB685B7803F01003002B08D0BB685B7811
:1052A80023F01003DBB20A33DAB2BB685A707B68AA
:1052B800002B1CD1BB68DB78184600F0B1FA034616
:1052C8001C04BB685B78184600F0AAFA03461B0268
:1052D8001C43BB689B78184600F0A2FA034644EAD0
:1052E8000302BB681B785B0313437B610EE0BB685A
:1052F800DB781A04BB685B781B021343BA689278A0
:105308001A43BB681B785B0313437B61FB681B680C
:10531800CA225A62FB681B6853225A62F86800F076
:1053280023FA0346FB74FB7C002B0CD1FB681A683C
:105338007B6923F07F4323F0C0035360F86800F0D3
:105348004AFA0346FB74FB7C002B02D1FB6801225E
:105358005A77FB681B68FF225A62FB6800221A779B
:10536800FB7C18461C37BD4690BD80B586B000AFA3
:10537800F860B9607A6000237B61FB681B685B6832
:1053880023F07F4323F0C0037B617B691B0CDAB2F7
:10539800BB68DA707B691B0ADBB203F01F03DAB261
:1053A800BB685A707B69DBB203F03F03DAB2BB68B3
:1053B8009A707B695B0BDBB203F00703DAB2BB6858
:1053C8001A707B68002B1AD1BB68DB78184600F08E
:1053D80045FA03461A46BB68DA70BB685B7818461C
:1053E80000F03CFA03461A46BB685A70BB689B78C3
:1053F800184600F033FA03461A46BB689A70002331
:1054080018461837BD4680BD90B589B000AFF86022
:10541800B9607A609B4B1B689B4AA2FB0323DB0A9B
:105428004FF47A7202FB03F37B610023FB610023D4
:10543800BB61FB681B7F012B01D102231EE1FB68C6
:1054480001221A77FB6802225A777B68002B37D132
:10545800FB681B689B6803F04003002B02D1BB6804
:105468000022DA70BB681B78184600F0D9F90346A9
:105478001C04BB685B78184600F0D2F903461B028F
:105488001C43BB689B78184600F0CAF9034644EAF7
:105498000302BB68DB789B0542EA0304BB6893F808
:1054A8002030184600F0BCF903461B0644EA030204
:1054B800BB68DB691A43BB685B691343FB6123E084
:1054C800FB681B689B6803F04003002B02D1BB6894
:1054D8000022DA70BB681B781A04BB685B781B0271
:1054E8001343BA6892781A43BB68DB789B051A4362
:1054F800BB6893F820301B061A43BB68DB691A4364
:10550800BB685B691343FB61BB685A68BB689B69EE
:105518001343BB61FB681B68CA225A62FB681B689D
:1055280053225A62BB685B6AB3F5807F42D1FB683D
:105538001B689A68FB681B6822F480729A60FB6893
:105548001B68DB68DAB2FB681B6862F4C072DA6059
:105558007B69013B7B617B69002B0BD1FB681B6876
:10556800FF225A62FB6803225A77FB6800221A77E7
:10557800032383E0FB681B68DB6803F00103002B4F
:10558800E6D0FB681B68FA69DA61FB681B68BA69D0
:105598005A64FB681B689A68FB681B6842F480724F
:1055A8009A60FB681B689A68FB681B6842F4805223
:1055B8009A604CE0FB681B689A68FB681B6822F4D9
:1055C80000729A60FB681B68DB68DAB2FB681B68CC
:1055D80062F42072DA602B4B1B682B4AA2FB032370
:1055E800DB0A4FF47A7202FB03F37B617B69013BB0
:1055F8007B617B69002B0BD1FB681B68FF225A6219
:10560800FB6803225A77FB6800221A77032335E0E8
:10561800FB681B68DB6803F00203002BE6D0FB681D
:105628001B68FA691A62FB681B68BA699A64FB68A6
:105638001B689A68FB681B6842F400729A60FB68F2
:105648001B689A68FB681B6842F400529A600F4B0B
:105658001B680E4A43F4003313600C4B9B680B4ADB
:1056680043F400339360FB681B68FF225A62FB68AF
:1056780001225A77FB6800221A770023184624373C
:10568800BD4690BD00000020D34D6210003C014093
:1056980080B582B000AF78601F4B4FF400325A617A
:1056A8007B681B689B6803F48053002B12D07B68CF
:1056B8001B68DB6803F48073002B0BD07B681B68C6
:1056C800DB68DAB27B681B6862F4C072DA607868FB
:1056D800FBF7C0F97B681B689B6803F40053002B39
:1056E80012D07B681B68DB6803F40073002B0BD0B7
:1056F8007B681B68DB68DAB27B681B6862F420721F
:10570800DA60786800F0C8F87B6801225A7700BF31
:105718000837BD4680BD00BF003C014080B584B05D
:1057280000AF78600023FB607B681B680D4ADA6075
:10573800FBF72CFCF86009E0FBF728FC0246FB6845
:10574800D31AB3F57A7F01D9032307E07B681B6876
:10575800DB6803F02003002BEED000231846103737
:10576800BD4680BD5F7F010080B584B000AF786022
:105778000023BB600023FB737B681B68DB6803F0B6
:105788004003002B22D17B681B68DA687B681B68A2
:1057980042F08002DA60FBF7F9FBB8600CE0FBF737
:1057A800F5FB0246BB68D31AB3F57A7F04D97B6848
:1057B80004225A770123FB737B681B68DB6803F0BC
:1057C8004003002B02D1FB7B012BE8D1FB7B184661
:1057D8001037BD4680BD80B584B000AF7860002327
:1057E800FB737B681B68DA687B681B6822F08002A1
:1057F800DA607B681B689B6803F02003002B0AD1E2
:105808007868FFF78BFF0346002B04D07B680422DF
:105818005A770123FB73FB7B18461037BD4680BDC2
:1058280080B485B000AF0346FB710023FB6005E040
:10583800FB680133FB60FB790A3BFB71FB79092BA1
:10584800F6D8FB68DBB21B01DAB2FB791343DBB293
:1058580018461437BD465DF8047B704780B485B0A0
:1058680000AF0346FB710023FB60FB791B09DBB229
:105878001A4613469B0013445B00FB60FB68DAB2D0
:10588800FB7903F00F03DBB21344DBB2184614377D
:10589800BD465DF8047B704780B483B000AF786084
:1058A80000BF0C37BD465DF8047B704780B582B0F9
:1058B80000AF78607B68002B01D101237BE07B6817
:1058C8005B6A002B08D17B685B68B3F5827F09D0DF
:1058D8007B680022DA6105E07B6800221A617B6838
:1058E80000225A617B6800229A627B6893F85130E3
:1058F800DBB2002B06D17B68002283F85020786841
:10590800FBF7E0F97B68022283F851207B681B686B
:105918001A687B681B6822F040021A607B685B6823
:1059280003F482727B689B6803F404431A437B6820
:10593800DB6803F400631A437B681B6903F0020306
:105948001A437B685B6903F001031A437B689B6910
:1059580003F400731A437B68DB6903F038031A43C6
:105968007B681B6A03F0800342EA03017B689B6A39
:1059780003F400527B681B680A431A607B689B69C2
:105988001B0C03F004017B685B6A03F010027B6860
:105998001B680A435A607B681B68DA697B681B6866
:1059A80022F40062DA617B6800225A657B68012272
:1059B80083F85120002318460837BD4680BD84B0BF
:1059C80080B584B000AF786007F11C0080E80E0055
:1059D80097F82130012B23D17B689B6B23F480320D
:1059E8007B689A637B68DB6823F4840323F04003B5
:1059F8007A68D3607B68DB6823F440127B68DA60DE
:105A080097F82830012B05D17B68DB6843F48012B6
:105A18007B68DA60786800F0DCF90346FB731BE00A
:105A28007B68DB6843F040027B68DA60786800F0E6
:105A3800D0F90346FB7397F82530002B06D17B6815
:105A48009B6B43F480327B689A6305E07B689B6BB1
:105A580023F480327B689A63BB7F012B0BD17B6870
:105A68009B6843F006027B689A607B689B6843F0FA
:105A780020027B689A60FB7B18461037BD46BDE85C
:105A8800804004B0704780B483B000AF78607B6812
:105A98009B6843F001027B689A60002318460C3724
:105AA800BD465DF8047B704780B483B000AF786072
:105AB8007B689B6823F001027B689A600023184684
:105AC8000C37BD465DF8047B704780B584B000AFE5
